{
  "_format": "hh-sol-artifact-1",
  "contractName": "MutantCoinIDO",
  "sourceName": "contracts/governance/MutantCoinIDO.sol",
  "abi": [
    {
      "inputs": [
        {
          "internalType": "address",
          "name": "inputToken_",
          "type": "address"
        },
        {
          "internalType": "address",
          "name": "MCOIN_",
          "type": "address"
        }
      ],
      "stateMutability": "nonpayable",
      "type": "constructor"
    },
    {
      "anonymous": false,
      "inputs": [
        {
          "indexed": true,
          "internalType": "address",
          "name": "previousOwner",
          "type": "address"
        },
        {
          "indexed": true,
          "internalType": "address",
          "name": "newOwner",
          "type": "address"
        }
      ],
      "name": "OwnershipTransferred",
      "type": "event"
    },
    {
      "inputs": [],
      "name": "_MCOIN",
      "outputs": [
        {
          "internalType": "address",
          "name": "",
          "type": "address"
        }
      ],
      "stateMutability": "view",
      "type": "function"
    },
    {
      "inputs": [],
      "name": "_enabled",
      "outputs": [
        {
          "internalType": "bool",
          "name": "",
          "type": "bool"
        }
      ],
      "stateMutability": "view",
      "type": "function"
    },
    {
      "inputs": [],
      "name": "_inputToken",
      "outputs": [
        {
          "internalType": "address",
          "name": "",
          "type": "address"
        }
      ],
      "stateMutability": "view",
      "type": "function"
    },
    {
      "inputs": [],
      "name": "_maxPurchaseAmount",
      "outputs": [
        {
          "internalType": "uint256",
          "name": "",
          "type": "uint256"
        }
      ],
      "stateMutability": "view",
      "type": "function"
    },
    {
      "inputs": [],
      "name": "_price",
      "outputs": [
        {
          "internalType": "uint256",
          "name": "",
          "type": "uint256"
        }
      ],
      "stateMutability": "view",
      "type": "function"
    },
    {
      "inputs": [],
      "name": "owner",
      "outputs": [
        {
          "internalType": "address",
          "name": "",
          "type": "address"
        }
      ],
      "stateMutability": "view",
      "type": "function"
    },
    {
      "inputs": [
        {
          "internalType": "uint256",
          "name": "amount",
          "type": "uint256"
        }
      ],
      "name": "purchase",
      "outputs": [],
      "stateMutability": "nonpayable",
      "type": "function"
    },
    {
      "inputs": [],
      "name": "renounceOwnership",
      "outputs": [],
      "stateMutability": "nonpayable",
      "type": "function"
    },
    {
      "inputs": [
        {
          "internalType": "uint256",
          "name": "newMaxPurchaseAmount",
          "type": "uint256"
        }
      ],
      "name": "setMaxPurchaseAmount",
      "outputs": [],
      "stateMutability": "nonpayable",
      "type": "function"
    },
    {
      "inputs": [
        {
          "internalType": "uint256",
          "name": "newPrice",
          "type": "uint256"
        }
      ],
      "name": "setPrice",
      "outputs": [],
      "stateMutability": "nonpayable",
      "type": "function"
    },
    {
      "inputs": [],
      "name": "toggleEnabled",
      "outputs": [],
      "stateMutability": "nonpayable",
      "type": "function"
    },
    {
      "inputs": [
        {
          "internalType": "address",
          "name": "newOwner",
          "type": "address"
        }
      ],
      "name": "transferOwnership",
      "outputs": [],
      "stateMutability": "nonpayable",
      "type": "function"
    },
    {
      "inputs": [],
      "name": "withdraw",
      "outputs": [],
      "stateMutability": "nonpayable",
      "type": "function"
    }
  ],
  "bytecode": "0x608060405234801561001057600080fd5b506040516110743803806110748339818101604052604081101561003357600080fd5b50805160209091015160006100466100da565b600080546001600160a01b0319166001600160a01b0383169081178255604051929350917f8be0079c531659141344cd1fd0a4f28419497f9722a3daafe3b4186f6b6457e0908290a3506000805460ff60a01b19169055600180546001600160a01b039384166001600160a01b031991821617909155600280549290931691161790556003805563773594006004556100de565b3390565b610f87806100ed6000396000f3fe608060405234801561001057600080fd5b50600436106100df5760003560e01c80638da5cb5b1161008c578063a5fa12f011610066578063a5fa12f014610171578063c36be4961461018e578063efef39a1146101aa578063f2fde38b146101c7576100df565b80638da5cb5b1461014457806391b7f5ed1461014c5780639f570c9014610169576100df565b80635d5e317c116100bd5780635d5e317c14610110578063715018a6146101185780637be3a3be14610120576100df565b8063235b6ea1146100e45780633044b56c146100fe5780633ccfd60b14610108575b600080fd5b6100ec6101ed565b60408051918252519081900360200190f35b6101066101f3565b005b6101066102a3565b6100ec61043d565b610106610443565b61012861050e565b604080516001600160a01b039092168252519081900360200190f35b61012861051d565b6101066004803603602081101561016257600080fd5b503561052c565b6101286105a5565b6101066004803603602081101561018757600080fd5b50356105b4565b61019661062d565b604080519115158252519081900360200190f35b610106600480360360208110156101c057600080fd5b503561063d565b610106600480360360208110156101dd57600080fd5b50356001600160a01b03166109c8565b60035481565b6101fb610ae9565b6001600160a01b031661020c61051d565b6001600160a01b031614610267576040805162461bcd60e51b815260206004820181905260248201527f4f776e61626c653a2063616c6c6572206973206e6f7420746865206f776e6572604482015290519081900360640190fd5b600080547fffffffffffffffffffffff00ffffffffffffffffffffffffffffffffffffffff8116600160a01b9182900460ff1615909102179055565b6102ab610ae9565b6001600160a01b03166102bc61051d565b6001600160a01b031614610317576040805162461bcd60e51b815260206004820181905260248201527f4f776e61626c653a2063616c6c6572206973206e6f7420746865206f776e6572604482015290519081900360640190fd5b600154604080516370a0823160e01b815230600482015290516000926001600160a01b0316916370a08231916024808301926020929190829003018186803b15801561036257600080fd5b505afa158015610376573d6000803e3d6000fd5b505050506040513d602081101561038c57600080fd5b50516001549091506103a8906001600160a01b03163383610aed565b600254604080516370a0823160e01b815230600482015290516000926001600160a01b0316916370a08231916024808301926020929190829003018186803b1580156103f357600080fd5b505afa158015610407573d6000803e3d6000fd5b505050506040513d602081101561041d57600080fd5b5051600254909150610439906001600160a01b03163383610aed565b5050565b60045481565b61044b610ae9565b6001600160a01b031661045c61051d565b6001600160a01b0316146104b7576040805162461bcd60e51b815260206004820181905260248201527f4f776e61626c653a2063616c6c6572206973206e6f7420746865206f776e6572604482015290519081900360640190fd5b600080546040516001600160a01b03909116907f8be0079c531659141344cd1fd0a4f28419497f9722a3daafe3b4186f6b6457e0908390a36000805473ffffffffffffffffffffffffffffffffffffffff19169055565b6002546001600160a01b031681565b6000546001600160a01b031690565b610534610ae9565b6001600160a01b031661054561051d565b6001600160a01b0316146105a0576040805162461bcd60e51b815260206004820181905260248201527f4f776e61626c653a2063616c6c6572206973206e6f7420746865206f776e6572604482015290519081900360640190fd5b600355565b6001546001600160a01b031681565b6105bc610ae9565b6001600160a01b03166105cd61051d565b6001600160a01b031614610628576040805162461bcd60e51b815260206004820181905260248201527f4f776e61626c653a2063616c6c6572206973206e6f7420746865206f776e6572604482015290519081900360640190fd5b600455565b600054600160a01b900460ff1681565b600054600160a01b900460ff1661069b576040805162461bcd60e51b815260206004820152600b60248201527f6e6f7420656e61626c6564000000000000000000000000000000000000000000604482015290519081900360640190fd5b600081116106f0576040805162461bcd60e51b815260206004820152601f60248201527f616d6f756e742068617320746f2062652067726561746572207468616e203000604482015290519081900360640190fd5b600454336000908152600560205260409020548201106107415760405162461bcd60e51b815260040180806020018281038252603e815260200180610ece603e913960400191505060405180910390fd5b600154604080516370a0823160e01b815233600482015290516000926001600160a01b0316916370a08231916024808301926020929190829003018186803b15801561078c57600080fd5b505afa1580156107a0573d6000803e3d6000fd5b505050506040513d60208110156107b657600080fd5b50519050808211156107f95760405162461bcd60e51b815260040180806020018281038252602a815260200180610f51602a913960400191505060405180910390fd5b600154610811906001600160a01b0316333085610c6c565b6001546040805163313ce56760e01b815290516000926001600160a01b03169163313ce567916004808301926020929190829003018186803b15801561085657600080fd5b505afa15801561086a573d6000803e3d6000fd5b505050506040513d602081101561088057600080fd5b50516002546040805163313ce56760e01b8152905160ff90931693506000926001600160a01b039092169163313ce56791600480820192602092909190829003018186803b1580156108d157600080fd5b505afa1580156108e5573d6000803e3d6000fd5b505050506040513d60208110156108fb57600080fd5b505160ff169050600061091f610916600a85900a6064610dde565b60035490610e47565b905060008111610976576040805162461bcd60e51b815260206004820152601160248201527f70726963652063616e6e6f742062652030000000000000000000000000000000604482015290519081900360640190fd5b60006109908261098a88600a87900a610e47565b90610dde565b6002549091506109aa906001600160a01b03163383610aed565b50503360009081526005602052604090208054909401909355505050565b6109d0610ae9565b6001600160a01b03166109e161051d565b6001600160a01b031614610a3c576040805162461bcd60e51b815260206004820181905260248201527f4f776e61626c653a2063616c6c6572206973206e6f7420746865206f776e6572604482015290519081900360640190fd5b6001600160a01b038116610a815760405162461bcd60e51b8152600401808060200182810382526026815260200180610ea86026913960400191505060405180910390fd5b600080546040516001600160a01b03808516939216917f8be0079c531659141344cd1fd0a4f28419497f9722a3daafe3b4186f6b6457e091a36000805473ffffffffffffffffffffffffffffffffffffffff19166001600160a01b0392909216919091179055565b3390565b604080516001600160a01b038481166024830152604480830185905283518084039091018152606490920183526020820180517bffffffffffffffffffffffffffffffffffffffffffffffffffffffff1663a9059cbb60e01b178152925182516000946060949389169392918291908083835b60208310610b7f5780518252601f199092019160209182019101610b60565b6001836020036101000a0380198251168184511680821785525050505050509050019150506000604051808303816000865af19150503d8060008114610be1576040519150601f19603f3d011682016040523d82523d6000602084013e610be6565b606091505b5091509150818015610c14575080511580610c145750808060200190516020811015610c1157600080fd5b50515b610c65576040805162461bcd60e51b815260206004820152601f60248201527f5472616e7366657248656c7065723a205452414e534645525f4641494c454400604482015290519081900360640190fd5b5050505050565b604080516001600160a01b0385811660248301528481166044830152606480830185905283518084039091018152608490920183526020820180517bffffffffffffffffffffffffffffffffffffffffffffffffffffffff166323b872dd60e01b17815292518251600094606094938a169392918291908083835b60208310610d065780518252601f199092019160209182019101610ce7565b6001836020036101000a0380198251168184511680821785525050505050509050019150506000604051808303816000865af19150503d8060008114610d68576040519150601f19603f3d011682016040523d82523d6000602084013e610d6d565b606091505b5091509150818015610d9b575080511580610d9b5750808060200190516020811015610d9857600080fd5b50515b610dd65760405162461bcd60e51b8152600401808060200182810382526024815260200180610f2d6024913960400191505060405180910390fd5b505050505050565b6000808211610e34576040805162461bcd60e51b815260206004820152601a60248201527f536166654d6174683a206469766973696f6e206279207a65726f000000000000604482015290519081900360640190fd5b818381610e3d57fe5b0490505b92915050565b600082610e5657506000610e41565b82820282848281610e6357fe5b0414610ea05760405162461bcd60e51b8152600401808060200182810382526021815260200180610f0c6021913960400191505060405180910390fd5b939250505056fe4f776e61626c653a206e6577206f776e657220697320746865207a65726f2061646472657373796f752063616e6e6f742065786365656420746865206d6178696d756d20616d6f756e74206f66204d434f494e20707572636861736520616c6c6f776564536166654d6174683a206d756c7469706c69636174696f6e206f766572666c6f775472616e7366657248656c7065723a205452414e534645525f46524f4d5f4641494c454477616c6c657420646f6573206e6f74206861766520656e6f7567682062616c616e636520746f20627579a164736f6c634300060c000a",
  "linkReferences": {},
  "deployedLinkReferences": {}
}